{
  "txid": "15c0cc463a8dfa138f1c99ed8a09ffe8c1f682457e3de8576bdc613606a4eea6",
  "hash": "15c0cc463a8dfa138f1c99ed8a09ffe8c1f682457e3de8576bdc613606a4eea6",
  "version": 2,
  "size": 484,
  "vsize": 484,
  "weight": 1936,
  "locktime": 0,
  "vin": [
    {
      "txid": "dd03e8a93c61e3558994eb71733a912589db3bace0d55c1fa748eff930371c6a",
      "vout": 2,
      "scriptSig": {
        "asm": "3044022027f0b2584fc87edaeb3df35e0137c985c0dfda58ee2ce7e0ea2050b3a3128a2e02204feee732eb326ec0a331e8589d7e2f19e5c72f8290bf716c214abda1c09c7f80[ALL] 03278cda3095892fb9916a577f28730d33d68ecbd0b69bd53bd4aa0d5799013292",
        "hex": "473044022027f0b2584fc87edaeb3df35e0137c985c0dfda58ee2ce7e0ea2050b3a3128a2e02204feee732eb326ec0a331e8589d7e2f19e5c72f8290bf716c214abda1c09c7f80012103278cda3095892fb9916a577f28730d33d68ecbd0b69bd53bd4aa0d5799013292"
      },
      "sequence": 4294967295
    }
  ],
  "vout": [
    {
      "value": 0.10034455,
      "n": 9,
      "scriptPubKey": {
        "asm": "OP_DUP OP_HASH160 0a7095a8a5e6f553c1a51f24e1ac770956325cda OP_EQUALVERIFY OP_CHECKSIG",
        "hex": "76a9140a7095a8a5e6f553c1a51f24e1ac770956325cda88ac",
        "reqSigs": 1,
        "type": "pubkeyhash"
      }
    }
  ],
  "hex": "02000000016a1c3730f9ef48a71f5cd5e0ac3bdb8925913a7371eb948955e3613ca9e803dd020000006a473044022027f0b2584fc87edaeb3df35e0137c985c0dfda58ee2ce7e0ea2050b3a3128a2e02204feee732eb326ec0a331e8589d7e2f19e5c72f8290bf716c214abda1c09c7f80012103278cda3095892fb9916a577f28730d33d68ecbd0b69bd53bd4aa0d5799013292ffffffff0a33b35001000000001976a9147cbb72d5fe4268fc3f61c568974469f0ce455caa88ac16cb16000000000017a914bec1fb36884a1c6150da911f1b4a32821be8c0b087fbf81f0000000000160014b2d20177419d01671505bd7aa4cc22057a8a81e0b0180500000000001976a914a273fa707c8a5931ad32c5dca68b7d650b44a8d288ac948f040000000000160014bf8e6f49fdf999a0f27547f94f23a33f73c66cf6301b0f000000000016001473b8a7bbf93d91cee2965ca84ca8bbc225a80123c29b0b00000000001976a914e2ecd9b90e3e511499e472a618a9a399de8eb0be88ac3f443d00000000001976a914e1407eb7f752e27477d459d2651696a14f7f5d4588ac49a109000000000017a9140b5532d4ab33f9e5bd9de537d2d7bfb54f97062b87171d9900000000001976a9140a7095a8a5e6f553c1a51f24e1ac770956325cda88ac00000000",
  "blockhash": "0000000000000000000c58f9bb6ee2f8a51abe0b69c15fa3d72df5635e79599e",
  "confirmations": 3427,
  "time": 1629304230,
  "blocktime": 1629304230
}
