{
  "hash":"0000000000000b2a7f8b904746970151a26a039f4999ba2753cddf1da2f7f54e",
  "confirmations":584465,
  "strippedsize":377,
  "size":377,
  "weight":1508,
  "height":116432,
  "version":1,
  "versionHex":"00000001",
  "merkleroot":"f2102cbdf670ac3b703d397785d8282e233f2b1021a5e3536eb478fa4c8de052",
  "tx":[
    {
      "txid":"bcee3114714edcd2365a74bedfe994488caeb29a36b0a61067d3bfcbea8a51b7",
      "hash":"bcee3114714edcd2365a74bedfe994488caeb29a36b0a61067d3bfcbea8a51b7",
      "version":1,
      "size":138,
      "vsize":138,
      "weight":552,
      "locktime":0,
      "vin":[
        {
          "coinbase":"0439f3001b05c816f4f402",
          "sequence":4294967295
        }
      ],
      "vout":[
        {
          "value":50.01000000,
          "n":0,
          "scriptPubKey":{
            "asm":"04746cf14c1b37a7b9eab49d80ed36e0b48ea969c9df4375276f7685a8f02a2f4d7b7ee0cc7fc58b7f2fab2dcb7cea955653723013cacb5d7e32faad8fadd01c8b OP_CHECKSIG",
            "hex":"4104746cf14c1b37a7b9eab49d80ed36e0b48ea969c9df4375276f7685a8f02a2f4d7b7ee0cc7fc58b7f2fab2dcb7cea955653723013cacb5d7e32faad8fadd01c8bac",
            "type":"pubkey"
          }
        }
      ],
      "hex":"01000000010000000000000000000000000000000000000000000000000000000000000000ffffffff0b0439f3001b05c816f4f402ffffffff014034152a01000000434104746cf14c1b37a7b9eab49d80ed36e0b48ea969c9df4375276f7685a8f02a2f4d7b7ee0cc7fc58b7f2fab2dcb7cea955653723013cacb5d7e32faad8fadd01c8bac00000000"
    },
    {
      "txid":"d5ede5a4601999cae667f377162ce35ff8fb0a98758fd77979679d10b0ad231b",
      "hash":"d5ede5a4601999cae667f377162ce35ff8fb0a98758fd77979679d10b0ad231b",
      "version":1,
      "size":158,
      "vsize":158,
      "weight":632,
      "locktime":0,
      "vin":[
        {
          "txid":"6425f19b62e07961ddba1519722b21a21e550fc417b64866b06a8f580d44848f",
          "vout":0,
          "scriptSig":{
            "asm":"3045022004fc7ccebd885e92d3c6932c20ffa3fb7299e4df2dfb159b9147c5887b089c9e0221009052cde41ddcc4d643a2292d2057269418efbd2fe18e7b8603a12923b14637c6[ALL]",
            "hex":"483045022004fc7ccebd885e92d3c6932c20ffa3fb7299e4df2dfb159b9147c5887b089c9e0221009052cde41ddcc4d643a2292d2057269418efbd2fe18e7b8603a12923b14637c601"
          },
          "sequence":4294967295
        }
      ],
      "vout":[
        {
          "value":50.00000000,
          "n":0,
          "scriptPubKey":{
            "asm":"OP_DUP OP_HASH160 f4b004c3ca2e7f96f9fc5bca767708967af67a44 OP_EQUALVERIFY OP_CHECKSIG",
            "hex":"76a914f4b004c3ca2e7f96f9fc5bca767708967af67a4488ac",
            "reqSigs":1,
            "type":"pubkeyhash",
            "addresses":[
              "1PJnjo4n2Rt5jWTUrCRr4inK2XmFPXqFC7"
            ]
          }
        }
      ],
      "hex":"01000000018f84440d588f6ab06648b617c40f551ea2212b721915badd6179e0629bf125640000000049483045022004fc7ccebd885e92d3c6932c20ffa3fb7299e4df2dfb159b9147c5887b089c9e0221009052cde41ddcc4d643a2292d2057269418efbd2fe18e7b8603a12923b14637c601ffffffff0100f2052a010000001976a914f4b004c3ca2e7f96f9fc5bca767708967af67a4488ac00000000"
    }
  ],
  "time":1301809957,
  "mediantime":1301805805,
  "nonce":3847020139,
  "bits":"1b00f339",
  "difficulty":68977.78463020959,
  "chainwork":"0000000000000000000000000000000000000000000000002b5f8435cd3a42a1",
  "nTx":2,
  "previousblockhash":"00000000000077e57941e909386c82fbcf0d8a7ae5c92bd32d3f3e165a360842",
  "nextblockhash":"0000000000008f82ce685960d25b53ec325a4ffe6f7c97ce9428ea6c228cb1ae"
}
