{
  "header": {
    "hash": "000000000000000000088a771bf9592a8bd3e9a5dc4c5a18876b65b283f0fb1e",
    "stripped_size": 838212,
    "size": 1478959,
    "weight": 3993595,
    "height": 696402,
    "version": 536870916,
    "version_hex": "20000004",
    "merkle_root": "59799faccbcef968410648c4b856ac06e098ed6299d4fa1a001e274e9e2c10a7",
    "time": 1629306034,
    "median_time": 1629301309,
    "nonce": 1890536004,
    "bits": "1712180b",
    "difficulty": "15556093717702.55",
    "chain_work": "00000000000000000000000000000000000000002093b0274937449851e42ac8",
    "number_of_transactions": 2512,
    "previous_block_hash": "0000000000000000000bbc2c027a9f9a9144f5368d1e02091bddd0307b058ec3",
    "next_block_hash": "0000000000000000000189ca72cce3561fc8baae3559e54859ae2f333f7e31f7",
    "timestamp": {
      "seconds": 1629306034
    }
  },
  "transactions": [
    {
      "hex": "010000000001010000000000000000000000000000000000000000000000000000000000000000ffffffff5d0352a00a1a2f5669614254432f4d696e6564206279206265616d737430322f2cfabe6d6d4b85926e9340141efc60c5c309c1de2db5fd22556df522a6f9791abc74aeb2a5100000000000000010286fff08e50c61ecce5fd10933360000ffffffff04ff023526000000001976a914536ffa992491508dca0354e52f32a3a7a679a53a88ac00000000000000002b6a2952534b424c4f434b3a9a986c1fe7e927ffaedae625d1e3838861c970f38f1e8e279a74ab2c00371db60000000000000000266a24b9e11b6d0fe4a72d3a422ae9624b2a3df9e64d54af5a2ab2609a6adeb1e605f9320b852d0000000000000000266a24aa21a9edddf37957890c9031be6b3bccca7b714462c8a2bc2af26805952bf957f1506a140120000000000000000000000000000000000000000000000000000000000000000000000000",
      "transaction_id": "a0c993a7bada3762a0e9ea6e10dacbe487ced996edc8fb71bf5e893248524016",
      "hash": "e81c96d9c874fa6e4234683752b3f94f7f3a7d461eb52c90275379850dac3cbd",
      "size": 360,
      "virtual_size": 333,
      "weight": 1332,
      "version": 1,
      "inputs": [
        {
          "coinbase": "0352a00a1a2f5669614254432f4d696e6564206279206265616d737430322f2cfabe6d6d4b85926e9340141efc60c5c309c1de2db5fd22556df522a6f9791abc74aeb2a5100000000000000010286fff08e50c61ecce5fd10933360000",
          "sequence": 4294967295,
          "transaction_input_witnesses": [
            "0000000000000000000000000000000000000000000000000000000000000000"
          ]
        }
      ],
      "outputs": [
        {
          "script_public_key": {
            "assembly": "OP_DUP OP_HASH160 536ffa992491508dca0354e52f32a3a7a679a53a OP_EQUALVERIFY OP_CHECKSIG",
            "hex": "76a914536ffa992491508dca0354e52f32a3a7a679a53a88ac",
            "type": "pubkeyhash",
            "address": "18cBEMRxXHqzWWCxZNtU91F5sbUNKhL5PX"
          },
          "value": 641008383
        },
        {
          "index": 1,
          "script_public_key": {
            "assembly": "OP_RETURN 52534b424c4f434b3a9a986c1fe7e927ffaedae625d1e3838861c970f38f1e8e279a74ab2c00371db6",
            "hex": "6a2952534b424c4f434b3a9a986c1fe7e927ffaedae625d1e3838861c970f38f1e8e279a74ab2c00371db6",
            "type": "nulldata"
          }
        },
        {
          "index": 2,
          "script_public_key": {
            "assembly": "OP_RETURN b9e11b6d0fe4a72d3a422ae9624b2a3df9e64d54af5a2ab2609a6adeb1e605f9320b852d",
            "hex": "6a24b9e11b6d0fe4a72d3a422ae9624b2a3df9e64d54af5a2ab2609a6adeb1e605f9320b852d",
            "type": "nulldata"
          }
        },
        {
          "index": 3,
          "script_public_key": {
            "assembly": "OP_RETURN aa21a9edddf37957890c9031be6b3bccca7b714462c8a2bc2af26805952bf957f1506a14",
            "hex": "6a24aa21a9edddf37957890c9031be6b3bccca7b714462c8a2bc2af26805952bf957f1506a14",
            "type": "nulldata"
          }
        }
      ],
      "is_coinbase": true,
      "input_count": 1,
      "output_count": 4,
      "output_value": 641008383
    },
    {
      "hex": "0200000001a6eea4063661dc6b57e83d7e4582f6c1e8ff098aed991c8f13fa8d3a46ccc015090000006a47304402204f522e3cc16b5ac086d9a590cec7804bd7609a78a51bb0121866c260926e1f900220192820fef1fd45ae44f8fde8e15b162efe854ab0c4d461022308735724cc52d0012102d57f1ea927823c258f8fbea60c430e0d76e5dd79b0b96ec254dd3e028db32f98ffffffff03237f2100000000001976a9142bbfa6825cfdc424e0478c0e65173de0e491c19888acadc721000000000017a91404cddecdaf8fad330c165805061455d2e29027bd8790cf5500000000001976a914eb7d3bcea28d82c069cb9b585fc5a897bd47b2ba88ac00000000",
      "transaction_id": "752566908b88b5ce255bf694e6e8378207082226d954bb2cb574810ef29dc492",
      "hash": "752566908b88b5ce255bf694e6e8378207082226d954bb2cb574810ef29dc492",
      "size": 257,
      "virtual_size": 257,
      "weight": 1028,
      "version": 2,
      "inputs": [
        {
          "transaction_id": "15c0cc463a8dfa138f1c99ed8a09ffe8c1f682457e3de8576bdc613606a4eea6",
          "from_output_index": 9,
          "script_signature": {
            "assembly": "304402204f522e3cc16b5ac086d9a590cec7804bd7609a78a51bb0121866c260926e1f900220192820fef1fd45ae44f8fde8e15b162efe854ab0c4d461022308735724cc52d0[ALL] 02d57f1ea927823c258f8fbea60c430e0d76e5dd79b0b96ec254dd3e028db32f98",
            "hex": "47304402204f522e3cc16b5ac086d9a590cec7804bd7609a78a51bb0121866c260926e1f900220192820fef1fd45ae44f8fde8e15b162efe854ab0c4d461022308735724cc52d0012102d57f1ea927823c258f8fbea60c430e0d76e5dd79b0b96ec254dd3e028db32f98"
          },
          "sequence": 4294967295,
          "from_output": {
            "index": 9,
            "script_public_key": {
              "assembly": "OP_DUP OP_HASH160 0a7095a8a5e6f553c1a51f24e1ac770956325cda OP_EQUALVERIFY OP_CHECKSIG",
              "hex": "76a9140a7095a8a5e6f553c1a51f24e1ac770956325cda88ac",
              "type": "pubkeyhash",
              "address": "1xCdSACt6MPah1WhfB1zPUAxRjRk4ioAR"
            },
            "value": 10034455
          }
        },
        {
          "transaction_id": "15c0cc463a8dfa138f1c99ed8a09ffe8c1f682457e3de8576bdc613606a4eea6",
          "from_output_index": 8,
          "script_signature": {
            "assembly": "304402204f522e3cc16b5ac086d9a590cec7804bd7609a78a51bb0121866c260926e1f900220192820fef1fd45ae44f8fde8e15b162efe854ab0c4d461022308735724cc52d0[ALL] 02d57f1ea927823c258f8fbea60c430e0d76e5dd79b0b96ec254dd3e028db32f98",
            "hex": "47304402204f522e3cc16b5ac086d9a590cec7804bd7609a78a51bb0121866c260926e1f900220192820fef1fd45ae44f8fde8e15b162efe854ab0c4d461022308735724cc52d0012102d57f1ea927823c258f8fbea60c430e0d76e5dd79b0b96ec254dd3e028db32f98"
          },
          "sequence": 4294967295,
          "from_output": {
            "index": 8,
            "script_public_key": {
              "assembly": "OP_DUP OP_HASH160 0a7095a8a5e6f553c1a51f24e1ac770956325cda OP_EQUALVERIFY OP_CHECKSIG",
              "hex": "76a9140a7095a8a5e6f553c1a51f24e1ac770956325cda88ac",
              "type": "pubkeyhash",
              "address": "1xCdSACt6MPah1WhfB1zPUAxRjRk4ioAR"
            },
            "value": 10034455
          },
          "index": 1
        }
      ],
      "outputs": [
        {
          "script_public_key": {
            "assembly": "OP_DUP OP_HASH160 2bbfa6825cfdc424e0478c0e65173de0e491c198 OP_EQUALVERIFY OP_CHECKSIG",
            "hex": "76a9142bbfa6825cfdc424e0478c0e65173de0e491c19888ac",
            "type": "pubkeyhash",
            "address": "14zKeMXBrD9JKVjijSnDk2aercJAdV22Yh"
          },
          "value": 2195235
        },
        {
          "index": 1,
          "script_public_key": {
            "assembly": "OP_HASH160 04cddecdaf8fad330c165805061455d2e29027bd OP_EQUAL",
            "hex": "a91404cddecdaf8fad330c165805061455d2e29027bd87",
            "type": "scripthash",
            "address": "328RFS1pcLAWKMtRfsUqdKUXqAx12d8Bvs"
          },
          "value": 2213805
        },
        {
          "index": 2,
          "script_public_key": {
            "assembly": "OP_DUP OP_HASH160 eb7d3bcea28d82c069cb9b585fc5a897bd47b2ba OP_EQUALVERIFY OP_CHECKSIG",
            "hex": "76a914eb7d3bcea28d82c069cb9b585fc5a897bd47b2ba88ac",
            "type": "pubkeyhash",
            "address": "1NU9pTxN3MpNkeLDh8aaK7xxZhsdGHmR56"
          },
          "value": 5623696
        }
      ],
      "index": 1,
      "input_count": 2,
      "output_count": 3,
      "input_value": 20068910,
      "output_value": 10032736,
      "fee": 10036174
    }
  ]
}
