{
  "hash": "111111",
  "height": 696402,
  "previousblockhash": "0000000000000000000bbc2c027a9f9a9144f5368d1e02091bddd0307b058ec3",
  "tx": [
    {
      "txid": "a0c993a7bada3762a0e9ea6e10dacbe487ced996edc8fb71bf5e893248524016",
      "hash": "e81c96d9c874fa6e4234683752b3f94f7f3a7d461eb52c90275379850dac3cbd",
      "version": 1,
      "size": 360,
      "vsize": 333,
      "weight": 1332,
      "locktime": 0,
      "vin": [
        {
          "coinbase": "0352a00a1a2f5669614254432f4d696e6564206279206265616d737430322f2cfabe6d6d4b85926e9340141efc60c5c309c1de2db5fd22556df522a6f9791abc74aeb2a5100000000000000010286fff08e50c61ecce5fd10933360000",
          "txinwitness": [
            "0000000000000000000000000000000000000000000000000000000000000000"
          ],
          "sequence": 4294967295
        }
      ],
      "hex": "010000000001010000000000000000000000000000000000000000000000000000000000000000ffffffff5d0352a00a1a2f5669614254432f4d696e6564206279206265616d737430322f2cfabe6d6d4b85926e9340141efc60c5c309c1de2db5fd22556df522a6f9791abc74aeb2a5100000000000000010286fff08e50c61ecce5fd10933360000ffffffff04ff023526000000001976a914536ffa992491508dca0354e52f32a3a7a679a53a88ac00000000000000002b6a2952534b424c4f434b3a9a986c1fe7e927ffaedae625d1e3838861c970f38f1e8e279a74ab2c00371db60000000000000000266a24b9e11b6d0fe4a72d3a422ae9624b2a3df9e64d54af5a2ab2609a6adeb1e605f9320b852d0000000000000000266a24aa21a9edddf37957890c9031be6b3bccca7b714462c8a2bc2af26805952bf957f1506a140120000000000000000000000000000000000000000000000000000000000000000000000000"
    }
  ]
}
