{
  "hash": "000000000000000000088a771bf9592a8bd3e9a5dc4c5a18876b65b283f0fb1e",
  "height": 696402,
  "previousblockhash": "0000000000000000000bbc2c027a9f9a9144f5368d1e02091bddd0307b058ec3",
  "time": 1629306034,
  "tx": [
    {
      "txid": "a0c993a7bada3762a0e9ea6e10dacbe487ced996edc8fb71bf5e893248524016",
      "hash": "e81c96d9c874fa6e4234683752b3f94f7f3a7d461eb52c90275379850dac3cbd",
      "version": 1,
      "size": 360,
      "vsize": 333,
      "weight": 1332,
      "locktime": 0,
      "vin": [
        {
          "coinbase": "0352a00a1a2f5669614254432f4d696e6564206279206265616d737430322f2cfabe6d6d4b85926e9340141efc60c5c309c1de2db5fd22556df522a6f9791abc74aeb2a5100000000000000010286fff08e50c61ecce5fd10933360000",
          "txinwitness": [
            "0000000000000000000000000000000000000000000000000000000000000000"
          ],
          "sequence": 4294967295
        }
      ],
      "hex": "010000000001010000000000000000000000000000000000000000000000000000000000000000ffffffff5d0352a00a1a2f5669614254432f4d696e6564206279206265616d737430322f2cfabe6d6d4b85926e9340141efc60c5c309c1de2db5fd22556df522a6f9791abc74aeb2a5100000000000000010286fff08e50c61ecce5fd10933360000ffffffff04ff023526000000001976a914536ffa992491508dca0354e52f32a3a7a679a53a88ac00000000000000002b6a2952534b424c4f434b3a9a986c1fe7e927ffaedae625d1e3838861c970f38f1e8e279a74ab2c00371db60000000000000000266a24b9e11b6d0fe4a72d3a422ae9624b2a3df9e64d54af5a2ab2609a6adeb1e605f9320b852d0000000000000000266a24aa21a9edddf37957890c9031be6b3bccca7b714462c8a2bc2af26805952bf957f1506a140120000000000000000000000000000000000000000000000000000000000000000000000000"
    },
    {
      "txid": "7d92ab2ec55bdfeebebb2ad2a669168b845a0b7c92a1dc1ada2bbace22192f5f",
      "hash": "d3fbe596808791ce9c8984edfd05d40bae5c1a0287b2685da0cd367c6fc794ba",
      "version": 2,
      "size": 192,
      "vsize": 111,
      "weight": 441,
      "locktime": 696399,
      "vin": [
        {
          "txid": "15737c23e02136a7821e966d4eb1a9020f9b673ef2d42aa2634cf5a34f656e02",
          "vout": 0,
          "scriptSig": {
            "asm": "",
            "hex": ""
          },
          "txinwitness": [
            "304402203895e120566e981428e3ce0ce9c59ca12aed5a9cd1538831687c90148e661cd5022076316eff3ba845f4775a75d56f84328958f41bb27e5464ddb552aca23fc8bb8601",
            "0280a07087d5a89cc9a0e0ff7898f5094c4160cc6ae1dc36340f4e99a854421280"
          ],
          "sequence": 4294967293
        }
      ],
      "hex": "02000000000101026e654fa3f54c63a22ad4f23e679b0f02a9b14e6d961e82a73621e0237c73154400000000fdffffff01bd2502000000000017a91402a39162cd1af2136a5ee34e847c319991f06bc3870247304402203895e120566e981428e3ce0ce9c59ca12aed5a9cd1538831687c90148e661cd5022076316eff3ba845f4775a75d56f84328958f41bb27e5464ddb552aca23fc8bb8601210280a07087d5a89cc9a0e0ff7898f5094c4160cc6ae1dc36340f4e99a8544212804fa00a00"
    },
    {
      "txid": "6a1e48651d0f8a7c2fe0d72af40c2410b8e0bb732c73baea3e1a7532e5e25390",
      "hash": "6a1e48651d0f8a7c2fe0d72af40c2410b8e0bb732c73baea3e1a7532e5e25390",
      "version": 2,
      "size": 828,
      "vsize": 828,
      "weight": 3312,
      "locktime": 0,
      "vin": [
        {
          "txid": "e37e2f43693a5a8987c19fb8766d822d5e6d5da2f266882e709e05b4808c7d63",
          "vout": 0,
          "scriptSig": {
            "asm": "30440220261bb163ddffb2b8ee401469ddfd2b2b1b9ffd359bc2d8aeb2945a93133914d702202f9dd659186938f7653966317ce8af919d11c369a17b255d46b99885269c5fde[ALL] 02cb2eb3fb53503a928ceda4d622a9562abf5e489c3d40a79a2e1ffdc7d0e3ed34",
            "hex": "4730440220261bb163ddffb2b8ee401469ddfd2b2b1b9ffd359bc2d8aeb2945a93133914d702202f9dd659186938f7653966317ce8af919d11c369a17b255d46b99885269c5fde012102cb2eb3fb53503a928ceda4d622a9562abf5e489c3d40a79a2e1ffdc7d0e3ed34"
          },
          "sequence": 4294967295
        },
        {
          "txid": "09521bcb529be1fe63fd28aff8e0b121756371e612289866fdd948f0ca1321c4",
          "vout": 1,
          "scriptSig": {
            "asm": "30440220087ca44c484b3b5abc106f6e556a96f0e1954dfa85c828968d8184f3684bc469022005d7bfacb4e264ec93f3fa84460a4a88475e8f756337cf9a509915abdbf11367[ALL] 0233d2d7be975f79c8845924d8521fdd99651d97aa3d6549a976f4deae59dd8c4d",
            "hex": "4730440220087ca44c484b3b5abc106f6e556a96f0e1954dfa85c828968d8184f3684bc469022005d7bfacb4e264ec93f3fa84460a4a88475e8f756337cf9a509915abdbf1136701210233d2d7be975f79c8845924d8521fdd99651d97aa3d6549a976f4deae59dd8c4d"
          },
          "sequence": 4294967295
        }
      ],
      "vout": [
        {
          "value": 7,
          "n": 0,
          "scriptPubKey": {
            "asm": "OP_DUP OP_HASH160 51031b7f7f6ce5a2ab31cbd75f1d339037b296d9 OP_EQUALVERIFY OP_CHECKSIG",
            "hex": "76a91451031b7f7f6ce5a2ab31cbd75f1d339037b296d988ac",
            "type": "pubkeyhash",
            "address": "18PMTSpccrmkgKXPcbqJ3C9A3YTNs6owbm"
          }
        },
        {
          "value": 0.03683063,
          "n": 1,
          "scriptPubKey": {
            "asm": "0 17b96b7aceb009ea205cd6cc3f0569260c78f861",
            "hex": "001417b96b7aceb009ea205cd6cc3f0569260c78f861",
            "type": "witness_v0_keyhash",
            "address": "bc1qz7ukk7kwkqy75gzu6mxr7ptfycx837rpu68qqz"
          }
        }
      ],
      "hex": "0200000004637d8c80b4059e702e8866f2a25d6d5e2d826d76b89fc187895a3a69432f7ee3000000006a4730440220261bb163ddffb2b8ee401469ddfd2b2b1b9ffd359bc2d8aeb2945a93133914d702202f9dd659186938f7653966317ce8af919d11c369a17b255d46b99885269c5fde012102cb2eb3fb53503a928ceda4d622a9562abf5e489c3d40a79a2e1ffdc7d0e3ed34ffffffffc42113caf048d9fd66982812e671637521b1e0f8af28fd63fee19b52cb1b5209030000006a4730440220087ca44c484b3b5abc106f6e556a96f0e1954dfa85c828968d8184f3684bc469022005d7bfacb4e264ec93f3fa84460a4a88475e8f756337cf9a509915abdbf1136701210233d2d7be975f79c8845924d8521fdd99651d97aa3d6549a976f4deae59dd8c4dffffffffcf62b3fc89d396fc7bf6c0f8dcfdcf361e7c7d2f5085b81652a180a2e6a40eaf030000006a473044022033cbb57df0bda91d546833b7e7fa4430374d55cdf115fcacaf48dd0331f0039d022061cad5e4e247f924222052d2a2fb5e4daaa7d4be7cbbdc7c832f8d235a0d339301210309bb4f26f1d2fafed216c400b75fcfc4824aa697bb41e63a82c877814af7d3f4ffffffff59c8db24577e05e4e92680a0d56c97c585bc328e01296c7ef0ea38c9bc406ab7040000006a47304402207643161c89b50dbb0a05999c4a8d91e6a3a436ba721ab51b5f44c1eeba38622502203ac04f3f7a9a2d1ecf38a25650394e8a86a25594f101502fb1d9f5bfdc6b4c48012102fac67a5753800abb68cbc1aedb169cf23b1446d68676885dab16a46e2da62d62ffffffff070027b929000000001976a91451031b7f7f6ce5a2ab31cbd75f1d339037b296d988acf73238000000000016001417b96b7aceb009ea205cd6cc3f0569260c78f8610ed00e00000000001976a9145ed9c932b1f46d5604a978f36f656e976caa938888ac118c030000000000160014c9b0673c851328ed408c9b3dea3a95f85ae7fc3c70ce2000000000001976a914d87af81b5d70f3d642b13477761e0fd307d6eefe88aceae4d3000000000017a914b30b9b8e933d305c6c70f9ebe658f7d73dcc234c87a51cc609000000001976a9140d8a8eb0082aba8038c763fd9dd669970c4a11c588ac00000000"
    }
  ]
}
